{
  "contractName": "Napker",
  "abi": [
    {
      "constant": true,
      "inputs": [],
      "name": "n_napkers",
      "outputs": [
        {
          "name": "",
          "type": "uint256"
        }
      ],
      "payable": false,
      "stateMutability": "view",
      "type": "function"
    },
    {
      "constant": true,
      "inputs": [],
      "name": "root_napkers",
      "outputs": [
        {
          "name": "",
          "type": "uint256"
        }
      ],
      "payable": false,
      "stateMutability": "view",
      "type": "function"
    },
    {
      "constant": false,
      "inputs": [],
      "name": "Napkin",
      "outputs": [],
      "payable": false,
      "stateMutability": "nonpayable",
      "type": "function"
    },
    {
      "constant": true,
      "inputs": [
        {
          "name": "napker",
          "type": "uint256"
        },
        {
          "name": "id",
          "type": "uint256"
        }
      ],
      "name": "getId",
      "outputs": [
        {
          "name": "v",
          "type": "uint256"
        },
        {
          "name": "next_id",
          "type": "uint256"
        },
        {
          "name": "prev_id",
          "type": "uint256"
        }
      ],
      "payable": false,
      "stateMutability": "view",
      "type": "function"
    },
    {
      "constant": true,
      "inputs": [
        {
          "name": "napker",
          "type": "uint256"
        }
      ],
      "name": "getNapker",
      "outputs": [
        {
          "name": "contract_napker",
          "type": "address"
        },
        {
          "name": "asset",
          "type": "uint256"
        },
        {
          "name": "root_id",
          "type": "uint256"
        }
      ],
      "payable": false,
      "stateMutability": "view",
      "type": "function"
    }
  ],
  "bytecode": "0x60606040526000805560006001556000600260006101000a81548173ffffffffffffffffffffffffffffffffffffffff021916908373ffffffffffffffffffffffffffffffffffffffff160217905550341561005a57600080fd5b6102b7806100696000396000f30060606040526004361061006d576000357c0100000000000000000000000000000000000000000000000000000000900463ffffffff16806324fc65ed146100725780632fd945d0146100c05780638d92ece2146100d55780639cfbd50114610146578063a2540de91461016f575b600080fd5b341561007d57600080fd5b61009c6004808035906020019091908035906020019091905050610198565b60405180848152602001838152602001828152602001935050505060405180910390f35b34156100cb57600080fd5b6100d36101e4565b005b34156100e057600080fd5b6100f66004808035906020019091905050610227565b604051808473ffffffffffffffffffffffffffffffffffffffff1673ffffffffffffffffffffffffffffffffffffffff168152602001838152602001828152602001935050505060405180910390f35b341561015157600080fd5b61015961027f565b6040518082815260200191505060405180910390f35b341561017a57600080fd5b610182610285565b6040518082815260200191505060405180910390f35b6000806000806003600087815260200190815260200160002060030160008681526020019081526020016000209050806000015493508060010154925080600201549150509250925092565b33600260006101000a81548173ffffffffffffffffffffffffffffffffffffffff021916908373ffffffffffffffffffffffffffffffffffffffff160217905550565b6000806000806003600086815260200190815260200160002090508060000160009054906101000a900473ffffffffffffffffffffffffffffffffffffffff1693508060010154925080600201549150509193909250565b60005481565b600154815600a165627a7a72305820d98498dd52ffce2c4b646d16b293cf4785b2d7fcc9ab3d41f3e86339a9e2f33e0029",
  "source": "// Ethereum Name Registrar as it should be!\n//\n// Written by Alexandre Naverniouk\n// twitter @AlexNa\n\n\ncontract Napker {\n\n    uint constant MAX_PROLONG = 2000000; // Maximum number of blocks to prolong the ownership. About one year.\n    \n    uint public n_napkers = 0;      // total number of registered domains\n    uint public root_napkers = 0;    // name of the first domain in the linked list\n    address contract_napker = 0; // owner\n    \n    struct Id {                     // Id record. Double linked list. Allows to delete ID\n        uint value;\n        uint next_id;\n        uint prev_id;\n    }\n    \n    struct Napker {                 // Domain record. Linked list. \n        address contract_napker;              \n        uint asset;    \n        uint root_id;           \n        mapping (uint => Id) ids;   // Map of the ID's\n    }\n    \n    mapping (uint => Napker) napkers; // Map of the domains\n    \n    function Napkin()\n    {\n        contract_napker = msg.sender;\n    }\n\n    // function addAsset (uint id) public {\n    //     n_napkers[id] = id.value;\n    // }\n    \n    function getId( uint napker, uint id ) constant returns (uint v, uint next_id, uint prev_id )\n    {\n        Id i = napkers[napker].ids[id]; \n    \n        v = i.value;\n        next_id = i.next_id;\n        prev_id = i.prev_id;\n    }\n    \n    function getNapker( uint napker ) constant returns \n        (address contract_napker, uint asset, uint root_id )\n    {\n        Napker d = napkers[ napker ];\n        \n        contract_napker = d.contract_napker;\n        asset = d.asset;\n        root_id = d.root_id;    \n    }\n    \n}\n",
  "sourcePath": "/Users/servatj/personal/block-napkin/contracts/Napkins.sol",
  "compiler": {
    "name": "solc",
    "version": "0.4.19+commit.c4cbbb05.Emscripten.clang"
  },
  "schemaVersion": "2.0.0",
  "updatedAt": "2018-03-03T18:17:07.029Z"
}